{
  "_format": "hh-sol-artifact-1",
  "contractName": "CustomToken",
  "sourceName": "contracts/CustomCoin.sol",
  "abi": [
    {
      "inputs": [
        {
          "internalType": "string",
          "name": "name_",
          "type": "string"
        },
        {
          "internalType": "string",
          "name": "symbol_",
          "type": "string"
        },
        {
          "internalType": "address",
          "name": "initialOwner",
          "type": "address"
        }
      ],
      "stateMutability": "nonpayable",
      "type": "constructor"
    },
    {
      "inputs": [],
      "name": "ECDSAInvalidSignature",
      "type": "error"
    },
    {
      "inputs": [
        {
          "internalType": "uint256",
          "name": "length",
          "type": "uint256"
        }
      ],
      "name": "ECDSAInvalidSignatureLength",
      "type": "error"
    },
    {
      "inputs": [
        {
          "internalType": "bytes32",
          "name": "s",
          "type": "bytes32"
        }
      ],
      "name": "ECDSAInvalidSignatureS",
      "type": "error"
    },
    {
      "inputs": [
        {
          "internalType": "address",
          "name": "spender",
          "type": "address"
        },
        {
          "internalType": "uint256",
          "name": "allowance",
          "type": "uint256"
        },
        {
          "internalType": "uint256",
          "name": "needed",
          "type": "uint256"
        }
      ],
      "name": "ERC20InsufficientAllowance",
      "type": "error"
    },
    {
      "inputs": [
        {
          "internalType": "address",
          "name": "sender",
          "type": "address"
        },
        {
          "internalType": "uint256",
          "name": "balance",
          "type": "uint256"
        },
        {
          "internalType": "uint256",
          "name": "needed",
          "type": "uint256"
        }
      ],
      "name": "ERC20InsufficientBalance",
      "type": "error"
    },
    {
      "inputs": [
        {
          "internalType": "address",
          "name": "approver",
          "type": "address"
        }
      ],
      "name": "ERC20InvalidApprover",
      "type": "error"
    },
    {
      "inputs": [
        {
          "internalType": "address",
          "name": "receiver",
          "type": "address"
        }
      ],
      "name": "ERC20InvalidReceiver",
      "type": "error"
    },
    {
      "inputs": [
        {
          "internalType": "address",
          "name": "sender",
          "type": "address"
        }
      ],
      "name": "ERC20InvalidSender",
      "type": "error"
    },
    {
      "inputs": [
        {
          "internalType": "address",
          "name": "spender",
          "type": "address"
        }
      ],
      "name": "ERC20InvalidSpender",
      "type": "error"
    },
    {
      "inputs": [
        {
          "internalType": "uint256",
          "name": "deadline",
          "type": "uint256"
        }
      ],
      "name": "ERC2612ExpiredSignature",
      "type": "error"
    },
    {
      "inputs": [
        {
          "internalType": "address",
          "name": "signer",
          "type": "address"
        },
        {
          "internalType": "address",
          "name": "owner",
          "type": "address"
        }
      ],
      "name": "ERC2612InvalidSigner",
      "type": "error"
    },
    {
      "inputs": [
        {
          "internalType": "uint256",
          "name": "maxLoan",
          "type": "uint256"
        }
      ],
      "name": "ERC3156ExceededMaxLoan",
      "type": "error"
    },
    {
      "inputs": [
        {
          "internalType": "address",
          "name": "receiver",
          "type": "address"
        }
      ],
      "name": "ERC3156InvalidReceiver",
      "type": "error"
    },
    {
      "inputs": [
        {
          "internalType": "address",
          "name": "token",
          "type": "address"
        }
      ],
      "name": "ERC3156UnsupportedToken",
      "type": "error"
    },
    {
      "inputs": [
        {
          "internalType": "address",
          "name": "account",
          "type": "address"
        },
        {
          "internalType": "uint256",
          "name": "currentNonce",
          "type": "uint256"
        }
      ],
      "name": "InvalidAccountNonce",
      "type": "error"
    },
    {
      "inputs": [],
      "name": "InvalidShortString",
      "type": "error"
    },
    {
      "inputs": [
        {
          "internalType": "address",
          "name": "owner",
          "type": "address"
        }
      ],
      "name": "OwnableInvalidOwner",
      "type": "error"
    },
    {
      "inputs": [
        {
          "internalType": "address",
          "name": "account",
          "type": "address"
        }
      ],
      "name": "OwnableUnauthorizedAccount",
      "type": "error"
    },
    {
      "inputs": [
        {
          "internalType": "string",
          "name": "str",
          "type": "string"
        }
      ],
      "name": "StringTooLong",
      "type": "error"
    },
    {
      "anonymous": false,
      "inputs": [
        {
          "indexed": true,
          "internalType": "address",
          "name": "owner",
          "type": "address"
        },
        {
          "indexed": true,
          "internalType": "address",
          "name": "spender",
          "type": "address"
        },
        {
          "indexed": false,
          "internalType": "uint256",
          "name": "value",
          "type": "uint256"
        }
      ],
      "name": "Approval",
      "type": "event"
    },
    {
      "anonymous": false,
      "inputs": [],
      "name": "EIP712DomainChanged",
      "type": "event"
    },
    {
      "anonymous": false,
      "inputs": [
        {
          "indexed": true,
          "internalType": "address",
          "name": "previousOwner",
          "type": "address"
        },
        {
          "indexed": true,
          "internalType": "address",
          "name": "newOwner",
          "type": "address"
        }
      ],
      "name": "OwnershipTransferred",
      "type": "event"
    },
    {
      "anonymous": false,
      "inputs": [
        {
          "indexed": true,
          "internalType": "address",
          "name": "from",
          "type": "address"
        },
        {
          "indexed": true,
          "internalType": "address",
          "name": "to",
          "type": "address"
        },
        {
          "indexed": false,
          "internalType": "uint256",
          "name": "value",
          "type": "uint256"
        }
      ],
      "name": "Transfer",
      "type": "event"
    },
    {
      "inputs": [],
      "name": "DOMAIN_SEPARATOR",
      "outputs": [
        {
          "internalType": "bytes32",
          "name": "",
          "type": "bytes32"
        }
      ],
      "stateMutability": "view",
      "type": "function"
    },
    {
      "inputs": [
        {
          "internalType": "address",
          "name": "owner",
          "type": "address"
        },
        {
          "internalType": "address",
          "name": "spender",
          "type": "address"
        }
      ],
      "name": "allowance",
      "outputs": [
        {
          "internalType": "uint256",
          "name": "",
          "type": "uint256"
        }
      ],
      "stateMutability": "view",
      "type": "function"
    },
    {
      "inputs": [
        {
          "internalType": "address",
          "name": "spender",
          "type": "address"
        },
        {
          "internalType": "uint256",
          "name": "value",
          "type": "uint256"
        }
      ],
      "name": "approve",
      "outputs": [
        {
          "internalType": "bool",
          "name": "",
          "type": "bool"
        }
      ],
      "stateMutability": "nonpayable",
      "type": "function"
    },
    {
      "inputs": [
        {
          "internalType": "address",
          "name": "account",
          "type": "address"
        }
      ],
      "name": "balanceOf",
      "outputs": [
        {
          "internalType": "uint256",
          "name": "",
          "type": "uint256"
        }
      ],
      "stateMutability": "view",
      "type": "function"
    },
    {
      "inputs": [
        {
          "internalType": "uint256",
          "name": "value",
          "type": "uint256"
        }
      ],
      "name": "burn",
      "outputs": [],
      "stateMutability": "nonpayable",
      "type": "function"
    },
    {
      "inputs": [
        {
          "internalType": "address",
          "name": "account",
          "type": "address"
        },
        {
          "internalType": "uint256",
          "name": "value",
          "type": "uint256"
        }
      ],
      "name": "burnFrom",
      "outputs": [],
      "stateMutability": "nonpayable",
      "type": "function"
    },
    {
      "inputs": [],
      "name": "decimals",
      "outputs": [
        {
          "internalType": "uint8",
          "name": "",
          "type": "uint8"
        }
      ],
      "stateMutability": "view",
      "type": "function"
    },
    {
      "inputs": [],
      "name": "eip712Domain",
      "outputs": [
        {
          "internalType": "bytes1",
          "name": "fields",
          "type": "bytes1"
        },
        {
          "internalType": "string",
          "name": "name",
          "type": "string"
        },
        {
          "internalType": "string",
          "name": "version",
          "type": "string"
        },
        {
          "internalType": "uint256",
          "name": "chainId",
          "type": "uint256"
        },
        {
          "internalType": "address",
          "name": "verifyingContract",
          "type": "address"
        },
        {
          "internalType": "bytes32",
          "name": "salt",
          "type": "bytes32"
        },
        {
          "internalType": "uint256[]",
          "name": "extensions",
          "type": "uint256[]"
        }
      ],
      "stateMutability": "view",
      "type": "function"
    },
    {
      "inputs": [
        {
          "internalType": "address",
          "name": "token",
          "type": "address"
        },
        {
          "internalType": "uint256",
          "name": "value",
          "type": "uint256"
        }
      ],
      "name": "flashFee",
      "outputs": [
        {
          "internalType": "uint256",
          "name": "",
          "type": "uint256"
        }
      ],
      "stateMutability": "view",
      "type": "function"
    },
    {
      "inputs": [
        {
          "internalType": "contract IERC3156FlashBorrower",
          "name": "receiver",
          "type": "address"
        },
        {
          "internalType": "address",
          "name": "token",
          "type": "address"
        },
        {
          "internalType": "uint256",
          "name": "value",
          "type": "uint256"
        },
        {
          "internalType": "bytes",
          "name": "data",
          "type": "bytes"
        }
      ],
      "name": "flashLoan",
      "outputs": [
        {
          "internalType": "bool",
          "name": "",
          "type": "bool"
        }
      ],
      "stateMutability": "nonpayable",
      "type": "function"
    },
    {
      "inputs": [
        {
          "internalType": "address",
          "name": "token",
          "type": "address"
        }
      ],
      "name": "maxFlashLoan",
      "outputs": [
        {
          "internalType": "uint256",
          "name": "",
          "type": "uint256"
        }
      ],
      "stateMutability": "view",
      "type": "function"
    },
    {
      "inputs": [
        {
          "internalType": "address",
          "name": "to",
          "type": "address"
        },
        {
          "internalType": "uint256",
          "name": "amount",
          "type": "uint256"
        }
      ],
      "name": "mint",
      "outputs": [],
      "stateMutability": "nonpayable",
      "type": "function"
    },
    {
      "inputs": [],
      "name": "name",
      "outputs": [
        {
          "internalType": "string",
          "name": "",
          "type": "string"
        }
      ],
      "stateMutability": "view",
      "type": "function"
    },
    {
      "inputs": [
        {
          "internalType": "address",
          "name": "owner",
          "type": "address"
        }
      ],
      "name": "nonces",
      "outputs": [
        {
          "internalType": "uint256",
          "name": "",
          "type": "uint256"
        }
      ],
      "stateMutability": "view",
      "type": "function"
    },
    {
      "inputs": [],
      "name": "owner",
      "outputs": [
        {
          "internalType": "address",
          "name": "",
          "type": "address"
        }
      ],
      "stateMutability": "view",
      "type": "function"
    },
    {
      "inputs": [
        {
          "internalType": "address",
          "name": "owner",
          "type": "address"
        },
        {
          "internalType": "address",
          "name": "spender",
          "type": "address"
        },
        {
          "internalType": "uint256",
          "name": "value",
          "type": "uint256"
        },
        {
          "internalType": "uint256",
          "name": "deadline",
          "type": "uint256"
        },
        {
          "internalType": "uint8",
          "name": "v",
          "type": "uint8"
        },
        {
          "internalType": "bytes32",
          "name": "r",
          "type": "bytes32"
        },
        {
          "internalType": "bytes32",
          "name": "s",
          "type": "bytes32"
        }
      ],
      "name": "permit",
      "outputs": [],
      "stateMutability": "nonpayable",
      "type": "function"
    },
    {
      "inputs": [],
      "name": "renounceOwnership",
      "outputs": [],
      "stateMutability": "nonpayable",
      "type": "function"
    },
    {
      "inputs": [],
      "name": "symbol",
      "outputs": [
        {
          "internalType": "string",
          "name": "",
          "type": "string"
        }
      ],
      "stateMutability": "view",
      "type": "function"
    },
    {
      "inputs": [],
      "name": "totalSupply",
      "outputs": [
        {
          "internalType": "uint256",
          "name": "",
          "type": "uint256"
        }
      ],
      "stateMutability": "view",
      "type": "function"
    },
    {
      "inputs": [
        {
          "internalType": "address",
          "name": "to",
          "type": "address"
        },
        {
          "internalType": "uint256",
          "name": "value",
          "type": "uint256"
        }
      ],
      "name": "transfer",
      "outputs": [
        {
          "internalType": "bool",
          "name": "",
          "type": "bool"
        }
      ],
      "stateMutability": "nonpayable",
      "type": "function"
    },
    {
      "inputs": [
        {
          "internalType": "address",
          "name": "from",
          "type": "address"
        },
        {
          "internalType": "address",
          "name": "to",
          "type": "address"
        },
        {
          "internalType": "uint256",
          "name": "value",
          "type": "uint256"
        }
      ],
      "name": "transferFrom",
      "outputs": [
        {
          "internalType": "bool",
          "name": "",
          "type": "bool"
        }
      ],
      "stateMutability": "nonpayable",
      "type": "function"
    },
    {
      "inputs": [
        {
          "internalType": "address",
          "name": "newOwner",
          "type": "address"
        }
      ],
      "name": "transferOwnership",
      "outputs": [],
      "stateMutability": "nonpayable",
      "type": "function"
    }
  ],
  "bytecode": "0x6101606040523480156200001257600080fd5b506040516200324c3803806200324c8339818101604052810190620000389190620005c4565b82806040518060400160405280600181526020017f31000000000000000000000000000000000000000000000000000000000000008152508386868160039081620000849190620008a9565b508060049081620000969190620008a9565b505050600073ffffffffffffffffffffffffffffffffffffffff168173ffffffffffffffffffffffffffffffffffffffff16036200010e5760006040517f1e4fbdf7000000000000000000000000000000000000000000000000000000008152600401620001059190620009a1565b60405180910390fd5b6200011f81620001da60201b60201c565b5062000136600683620002a060201b90919060201c565b610120818152505062000154600782620002a060201b90919060201c565b6101408181525050818051906020012060e08181525050808051906020012061010081815250504660a0818152505062000193620002f860201b60201c565b608081815250503073ffffffffffffffffffffffffffffffffffffffff1660c08173ffffffffffffffffffffffffffffffffffffffff168152505050505050505062000b5f565b6000600560009054906101000a900473ffffffffffffffffffffffffffffffffffffffff16905081600560006101000a81548173ffffffffffffffffffffffffffffffffffffffff021916908373ffffffffffffffffffffffffffffffffffffffff1602179055508173ffffffffffffffffffffffffffffffffffffffff168173ffffffffffffffffffffffffffffffffffffffff167f8be0079c531659141344cd1fd0a4f28419497f9722a3daafe3b4186f6b6457e060405160405180910390a35050565b6000602083511015620002c657620002be836200035560201b60201c565b9050620002f2565b82620002d883620003c260201b60201c565b6000019081620002e99190620008a9565b5060ff60001b90505b92915050565b60007f8b73c3c69bb8fe3d512ecc4cf759cc79239f7b179b0ffacaa9a75d522b39400f60e0516101005146306040516020016200033a959493929190620009ea565b60405160208183030381529060405280519060200120905090565b600080829050601f81511115620003a557826040517f305a27a90000000000000000000000000000000000000000000000000000000081526004016200039c919062000a99565b60405180910390fd5b805181620003b39062000aef565b60001c1760001b915050919050565b6000819050919050565b6000604051905090565b600080fd5b600080fd5b600080fd5b600080fd5b6000601f19601f8301169050919050565b7f4e487b7100000000000000000000000000000000000000000000000000000000600052604160045260246000fd5b6200043582620003ea565b810181811067ffffffffffffffff82111715620004575762000456620003fb565b5b80604052505050565b60006200046c620003cc565b90506200047a82826200042a565b919050565b600067ffffffffffffffff8211156200049d576200049c620003fb565b5b620004a882620003ea565b9050602081019050919050565b60005b83811015620004d5578082015181840152602081019050620004b8565b60008484015250505050565b6000620004f8620004f2846200047f565b62000460565b905082815260208101848484011115620005175762000516620003e5565b5b62000524848285620004b5565b509392505050565b600082601f830112620005445762000543620003e0565b5b815162000556848260208601620004e1565b91505092915050565b600073ffffffffffffffffffffffffffffffffffffffff82169050919050565b60006200058c826200055f565b9050919050565b6200059e816200057f565b8114620005aa57600080fd5b50565b600081519050620005be8162000593565b92915050565b600080600060608486031215620005e057620005df620003d6565b5b600084015167ffffffffffffffff811115620006015762000600620003db565b5b6200060f868287016200052c565b935050602084015167ffffffffffffffff811115620006335762000632620003db565b5b62000641868287016200052c565b92505060406200065486828701620005ad565b9150509250925092565b600081519050919050565b7f4e487b7100000000000000000000000000000000000000000000000000000000600052602260045260246000fd5b60006002820490506001821680620006b157607f821691505b602082108103620006c757620006c662000669565b5b50919050565b60008190508160005260206000209050919050565b60006020601f8301049050919050565b600082821b905092915050565b600060088302620007317fffffffffffffffffffffffffffffffffffffffffffffffffffffffffffffffff82620006f2565b6200073d8683620006f2565b95508019841693508086168417925050509392505050565b6000819050919050565b6000819050919050565b60006200078a620007846200077e8462000755565b6200075f565b62000755565b9050919050565b6000819050919050565b620007a68362000769565b620007be620007b58262000791565b848454620006ff565b825550505050565b600090565b620007d5620007c6565b620007e28184846200079b565b505050565b5b818110156200080a57620007fe600082620007cb565b600181019050620007e8565b5050565b601f82111562000859576200082381620006cd565b6200082e84620006e2565b810160208510156200083e578190505b620008566200084d85620006e2565b830182620007e7565b50505b505050565b600082821c905092915050565b60006200087e600019846008026200085e565b1980831691505092915050565b60006200089983836200086b565b9150826002028217905092915050565b620008b4826200065e565b67ffffffffffffffff811115620008d057620008cf620003fb565b5b620008dc825462000698565b620008e98282856200080e565b600060209050601f8311600181146200092157600084156200090c578287015190505b6200091885826200088b565b86555062000988565b601f1984166200093186620006cd565b60005b828110156200095b5784890151825560018201915060208501945060208101905062000934565b868310156200097b578489015162000977601f8916826200086b565b8355505b6001600288020188555050505b505050505050565b6200099b816200057f565b82525050565b6000602082019050620009b8600083018462000990565b92915050565b6000819050919050565b620009d381620009be565b82525050565b620009e48162000755565b82525050565b600060a08201905062000a016000830188620009c8565b62000a106020830187620009c8565b62000a1f6040830186620009c8565b62000a2e6060830185620009d9565b62000a3d608083018462000990565b9695505050505050565b600082825260208201905092915050565b600062000a65826200065e565b62000a71818562000a47565b935062000a83818560208601620004b5565b62000a8e81620003ea565b840191505092915050565b6000602082019050818103600083015262000ab5818462000a58565b905092915050565b600081519050919050565b6000819050602082019050919050565b600062000ae68251620009be565b80915050919050565b600062000afc8262000abd565b8262000b088462000ac8565b905062000b158162000ad8565b9250602082101562000b585762000b537fffffffffffffffffffffffffffffffffffffffffffffffffffffffffffffffff83602003600802620006f2565b831692505b5050919050565b60805160a05160c05160e05161010051610120516101405161269262000bba6000396000611235015260006111fa015260006117520152600061173101526000610e9f01526000610ef501526000610f1e01526126926000f3fe608060405234801561001057600080fd5b50600436106101425760003560e01c8063715018a6116100b857806395d89b411161007c57806395d89b411461037f578063a9059cbb1461039d578063d505accf146103cd578063d9d98ce4146103e9578063dd62ed3e14610419578063f2fde38b1461044957610142565b8063715018a6146102e757806379cc6790146102f15780637ecebe001461030d57806384b0196e1461033d5780638da5cb5b1461036157610142565b80633644e5151161010a5780633644e5151461020157806340c10f191461021f57806342966c681461023b5780635cffe9de14610257578063613255ab1461028757806370a08231146102b757610142565b806306fdde0314610147578063095ea7b31461016557806318160ddd1461019557806323b872dd146101b3578063313ce567146101e3575b600080fd5b61014f610465565b60405161015c9190611c3f565b60405180910390f35b61017f600480360381019061017a9190611cff565b6104f7565b60405161018c9190611d5a565b60405180910390f35b61019d61051a565b6040516101aa9190611d84565b60405180910390f35b6101cd60048036038101906101c89190611d9f565b610524565b6040516101da9190611d5a565b60405180910390f35b6101eb610553565b6040516101f89190611e0e565b60405180910390f35b61020961055c565b6040516102169190611e42565b60405180910390f35b61023960048036038101906102349190611cff565b61056b565b005b61025560048036038101906102509190611e5d565b610581565b005b610271600480360381019061026c9190611f2d565b610595565b60405161027e9190611d5a565b60405180910390f35b6102a1600480360381019061029c9190611fb5565b610792565b6040516102ae9190611d84565b60405180910390f35b6102d160048036038101906102cc9190611fb5565b610809565b6040516102de9190611d84565b60405180910390f35b6102ef610851565b005b61030b60048036038101906103069190611cff565b610865565b005b61032760048036038101906103229190611fb5565b610885565b6040516103349190611d84565b60405180910390f35b610345610897565b60405161035897969594939291906120ea565b60405180910390f35b610369610941565b604051610376919061216e565b60405180910390f35b61038761096b565b6040516103949190611c3f565b60405180910390f35b6103b760048036038101906103b29190611cff565b6109fd565b6040516103c49190611d5a565b60405180910390f35b6103e760048036038101906103e291906121e1565b610a20565b005b61040360048036038101906103fe9190611cff565b610b68565b6040516104109190611d84565b60405180910390f35b610433600480360381019061042e9190612283565b610bec565b6040516104409190611d84565b60405180910390f35b610463600480360381019061045e9190611fb5565b610c73565b005b606060038054610474906122f2565b80601f01602080910402602001604051908101604052809291908181526020018280546104a0906122f2565b80156104ed5780601f106104c2576101008083540402835291602001916104ed565b820191906000526020600020905b8154815290600101906020018083116104d057829003601f168201915b5050505050905090565b600080610502610cf9565b905061050f818585610d01565b600191505092915050565b6000600254905090565b60008061052f610cf9565b905061053c858285610d13565b610547858585610da7565b60019150509392505050565b60006012905090565b6000610566610e9b565b905090565b610573610f52565b61057d8282610fd9565b5050565b61059261058c610cf9565b8261105b565b50565b6000806105a186610792565b9050808511156105e857806040517ffd9a76090000000000000000000000000000000000000000000000000000000081526004016105df9190611d84565b60405180910390fd5b60006105f48787610b68565b90506106008887610fd9565b7f439148f0bbc682ca079e46d6e2c2f0c1e3b820f1a291b069d8882abf8cf18dd98873ffffffffffffffffffffffffffffffffffffffff166323e30c8b610645610cf9565b8a8a868b8b6040518763ffffffff1660e01b815260040161066b96959493929190612370565b6020604051808303816000875af115801561068a573d6000803e3d6000fd5b505050506040513d601f19601f820116820180604052508101906106ae91906123e1565b146106f057876040517f678c5b000000000000000000000000000000000000000000000000000000000081526004016106e7919061216e565b60405180910390fd5b60006106fa6110dd565b90506107128930848a61070d919061243d565b610d13565b600082148061074d5750600073ffffffffffffffffffffffffffffffffffffffff168173ffffffffffffffffffffffffffffffffffffffff16145b1561076c57610767898389610762919061243d565b61105b565b610782565b610776898861105b565b610781898284610da7565b5b6001935050505095945050505050565b60003073ffffffffffffffffffffffffffffffffffffffff168273ffffffffffffffffffffffffffffffffffffffff16146107ce576000610802565b6107d661051a565b7fffffffffffffffffffffffffffffffffffffffffffffffffffffffffffffffff6108019190612471565b5b9050919050565b60008060008373ffffffffffffffffffffffffffffffffffffffff1673ffffffffffffffffffffffffffffffffffffffff168152602001908152602001600020549050919050565b610859610f52565b61086360006110e2565b565b61087782610871610cf9565b83610d13565b610881828261105b565b5050565b6000610890826111a8565b9050919050565b6000606080600080600060606108ab6111f1565b6108b361122c565b46306000801b600067ffffffffffffffff8111156108d4576108d36124a5565b5b6040519080825280602002602001820160405280156109025781602001602082028036833780820191505090505b507f0f00000000000000000000000000000000000000000000000000000000000000959493929190965096509650965096509650965090919293949596565b6000600560009054906101000a900473ffffffffffffffffffffffffffffffffffffffff16905090565b60606004805461097a906122f2565b80601f01602080910402602001604051908101604052809291908181526020018280546109a6906122f2565b80156109f35780601f106109c8576101008083540402835291602001916109f3565b820191906000526020600020905b8154815290600101906020018083116109d657829003601f168201915b5050505050905090565b600080610a08610cf9565b9050610a15818585610da7565b600191505092915050565b83421115610a6557836040517f62791302000000000000000000000000000000000000000000000000000000008152600401610a5c9190611d84565b60405180910390fd5b60007f6e71edae12b1b97f4d1f60370fef10105fa2faae0126114a169c64845d6126c9888888610a948c611267565b89604051602001610aaa969594939291906124d4565b6040516020818303038152906040528051906020012090506000610acd826112be565b90506000610add828787876112d8565b90508973ffffffffffffffffffffffffffffffffffffffff168173ffffffffffffffffffffffffffffffffffffffff1614610b5157808a6040517f4b800e46000000000000000000000000000000000000000000000000000000008152600401610b48929190612535565b60405180910390fd5b610b5c8a8a8a610d01565b50505050505050505050565b60003073ffffffffffffffffffffffffffffffffffffffff168373ffffffffffffffffffffffffffffffffffffffff1614610bda57826040517fb5a7db92000000000000000000000000000000000000000000000000000000008152600401610bd1919061216e565b60405180910390fd5b610be48383611308565b905092915050565b6000600160008473ffffffffffffffffffffffffffffffffffffffff1673ffffffffffffffffffffffffffffffffffffffff16815260200190815260200160002060008373ffffffffffffffffffffffffffffffffffffffff1673ffffffffffffffffffffffffffffffffffffffff16815260200190815260200160002054905092915050565b610c7b610f52565b600073ffffffffffffffffffffffffffffffffffffffff168173ffffffffffffffffffffffffffffffffffffffff1603610ced5760006040517f1e4fbdf7000000000000000000000000000000000000000000000000000000008152600401610ce4919061216e565b60405180910390fd5b610cf6816110e2565b50565b600033905090565b610d0e8383836001611310565b505050565b6000610d1f8484610bec565b90507fffffffffffffffffffffffffffffffffffffffffffffffffffffffffffffffff8114610da15781811015610d91578281836040517ffb8f41b2000000000000000000000000000000000000000000000000000000008152600401610d889392919061255e565b60405180910390fd5b610da084848484036000611310565b5b50505050565b600073ffffffffffffffffffffffffffffffffffffffff168373ffffffffffffffffffffffffffffffffffffffff1603610e195760006040517f96c6fd1e000000000000000000000000000000000000000000000000000000008152600401610e10919061216e565b60405180910390fd5b600073ffffffffffffffffffffffffffffffffffffffff168273ffffffffffffffffffffffffffffffffffffffff1603610e8b5760006040517fec442f05000000000000000000000000000000000000000000000000000000008152600401610e82919061216e565b60405180910390fd5b610e968383836114e7565b505050565b60007f000000000000000000000000000000000000000000000000000000000000000073ffffffffffffffffffffffffffffffffffffffff163073ffffffffffffffffffffffffffffffffffffffff16148015610f1757507f000000000000000000000000000000000000000000000000000000000000000046145b15610f44577f00000000000000000000000000000000000000000000000000000000000000009050610f4f565b610f4c61170c565b90505b90565b610f5a610cf9565b73ffffffffffffffffffffffffffffffffffffffff16610f78610941565b73ffffffffffffffffffffffffffffffffffffffff1614610fd757610f9b610cf9565b6040517f118cdaa7000000000000000000000000000000000000000000000000000000008152600401610fce919061216e565b60405180910390fd5b565b600073ffffffffffffffffffffffffffffffffffffffff168273ffffffffffffffffffffffffffffffffffffffff160361104b5760006040517fec442f05000000000000000000000000000000000000000000000000000000008152600401611042919061216e565b60405180910390fd5b611057600083836114e7565b5050565b600073ffffffffffffffffffffffffffffffffffffffff168273ffffffffffffffffffffffffffffffffffffffff16036110cd5760006040517f96c6fd1e0000000000000000000000000000000000000000000000000000000081526004016110c4919061216e565b60405180910390fd5b6110d9826000836114e7565b5050565b600090565b6000600560009054906101000a900473ffffffffffffffffffffffffffffffffffffffff16905081600560006101000a81548173ffffffffffffffffffffffffffffffffffffffff021916908373ffffffffffffffffffffffffffffffffffffffff1602179055508173ffffffffffffffffffffffffffffffffffffffff168173ffffffffffffffffffffffffffffffffffffffff167f8be0079c531659141344cd1fd0a4f28419497f9722a3daafe3b4186f6b6457e060405160405180910390a35050565b6000600860008373ffffffffffffffffffffffffffffffffffffffff1673ffffffffffffffffffffffffffffffffffffffff168152602001908152602001600020549050919050565b606061122760067f00000000000000000000000000000000000000000000000000000000000000006117a290919063ffffffff16565b905090565b606061126260077f00000000000000000000000000000000000000000000000000000000000000006117a290919063ffffffff16565b905090565b6000600860008373ffffffffffffffffffffffffffffffffffffffff1673ffffffffffffffffffffffffffffffffffffffff1681526020019081526020016000206000815480929190600101919050559050919050565b60006112d16112cb610e9b565b83611852565b9050919050565b6000806000806112ea88888888611893565b9250925092506112fa8282611987565b829350505050949350505050565b600092915050565b600073ffffffffffffffffffffffffffffffffffffffff168473ffffffffffffffffffffffffffffffffffffffff16036113825760006040517fe602df05000000000000000000000000000000000000000000000000000000008152600401611379919061216e565b60405180910390fd5b600073ffffffffffffffffffffffffffffffffffffffff168373ffffffffffffffffffffffffffffffffffffffff16036113f45760006040517f94280d620000000000000000000000000000000000000000000000000000000081526004016113eb919061216e565b60405180910390fd5b81600160008673ffffffffffffffffffffffffffffffffffffffff1673ffffffffffffffffffffffffffffffffffffffff16815260200190815260200160002060008573ffffffffffffffffffffffffffffffffffffffff1673ffffffffffffffffffffffffffffffffffffffff1681526020019081526020016000208190555080156114e1578273ffffffffffffffffffffffffffffffffffffffff168473ffffffffffffffffffffffffffffffffffffffff167f8c5be1e5ebec7d5bd14f71427d1e84f3dd0314c0f7b2291e5b200ac8c7c3b925846040516114d89190611d84565b60405180910390a35b50505050565b600073ffffffffffffffffffffffffffffffffffffffff168373ffffffffffffffffffffffffffffffffffffffff160361153957806002600082825461152d919061243d565b9250508190555061160c565b60008060008573ffffffffffffffffffffffffffffffffffffffff1673ffffffffffffffffffffffffffffffffffffffff168152602001908152602001600020549050818110156115c5578381836040517fe450d38c0000000000000000000000000000000000000000000000000000000081526004016115bc9392919061255e565b60405180910390fd5b8181036000808673ffffffffffffffffffffffffffffffffffffffff1673ffffffffffffffffffffffffffffffffffffffff16815260200190815260200160002081905550505b600073ffffffffffffffffffffffffffffffffffffffff168273ffffffffffffffffffffffffffffffffffffffff160361165557806002600082825403925050819055506116a2565b806000808473ffffffffffffffffffffffffffffffffffffffff1673ffffffffffffffffffffffffffffffffffffffff168152602001908152602001600020600082825401925050819055505b8173ffffffffffffffffffffffffffffffffffffffff168373ffffffffffffffffffffffffffffffffffffffff167fddf252ad1be2c89b69c2b068fc378daa952ba7f163c4a11628f55a4df523b3ef836040516116ff9190611d84565b60405180910390a3505050565b60007f8b73c3c69bb8fe3d512ecc4cf759cc79239f7b179b0ffacaa9a75d522b39400f7f00000000000000000000000000000000000000000000000000000000000000007f00000000000000000000000000000000000000000000000000000000000000004630604051602001611787959493929190612595565b60405160208183030381529060405280519060200120905090565b606060ff60001b83146117bf576117b883611aeb565b905061184c565b8180546117cb906122f2565b80601f01602080910402602001604051908101604052809291908181526020018280546117f7906122f2565b80156118445780601f1061181957610100808354040283529160200191611844565b820191906000526020600020905b81548152906001019060200180831161182757829003601f168201915b505050505090505b92915050565b60006040517f190100000000000000000000000000000000000000000000000000000000000081528360028201528260228201526042812091505092915050565b60008060007f7fffffffffffffffffffffffffffffff5d576e7357a4501ddfe92f46681b20a08460001c11156118d357600060038592509250925061197d565b6000600188888888604051600081526020016040526040516118f894939291906125e8565b6020604051602081039080840390855afa15801561191a573d6000803e3d6000fd5b505050602060405103519050600073ffffffffffffffffffffffffffffffffffffffff168173ffffffffffffffffffffffffffffffffffffffff160361196e57600060016000801b9350935093505061197d565b8060008060001b935093509350505b9450945094915050565b6000600381111561199b5761199a61262d565b5b8260038111156119ae576119ad61262d565b5b0315611ae757600160038111156119c8576119c761262d565b5b8260038111156119db576119da61262d565b5b03611a12576040517ff645eedf00000000000000000000000000000000000000000000000000000000815260040160405180910390fd5b60026003811115611a2657611a2561262d565b5b826003811115611a3957611a3861262d565b5b03611a7e578060001c6040517ffce698f7000000000000000000000000000000000000000000000000000000008152600401611a759190611d84565b60405180910390fd5b600380811115611a9157611a9061262d565b5b826003811115611aa457611aa361262d565b5b03611ae657806040517fd78bce0c000000000000000000000000000000000000000000000000000000008152600401611add9190611e42565b60405180910390fd5b5b5050565b60606000611af883611b5f565b90506000602067ffffffffffffffff811115611b1757611b166124a5565b5b6040519080825280601f01601f191660200182016040528015611b495781602001600182028036833780820191505090505b5090508181528360208201528092505050919050565b60008060ff8360001c169050601f811115611ba6576040517fb3512b0c00000000000000000000000000000000000000000000000000000000815260040160405180910390fd5b80915050919050565b600081519050919050565b600082825260208201905092915050565b60005b83811015611be9578082015181840152602081019050611bce565b60008484015250505050565b6000601f19601f8301169050919050565b6000611c1182611baf565b611c1b8185611bba565b9350611c2b818560208601611bcb565b611c3481611bf5565b840191505092915050565b60006020820190508181036000830152611c598184611c06565b905092915050565b600080fd5b600080fd5b600073ffffffffffffffffffffffffffffffffffffffff82169050919050565b6000611c9682611c6b565b9050919050565b611ca681611c8b565b8114611cb157600080fd5b50565b600081359050611cc381611c9d565b92915050565b6000819050919050565b611cdc81611cc9565b8114611ce757600080fd5b50565b600081359050611cf981611cd3565b92915050565b60008060408385031215611d1657611d15611c61565b5b6000611d2485828601611cb4565b9250506020611d3585828601611cea565b9150509250929050565b60008115159050919050565b611d5481611d3f565b82525050565b6000602082019050611d6f6000830184611d4b565b92915050565b611d7e81611cc9565b82525050565b6000602082019050611d996000830184611d75565b92915050565b600080600060608486031215611db857611db7611c61565b5b6000611dc686828701611cb4565b9350506020611dd786828701611cb4565b9250506040611de886828701611cea565b9150509250925092565b600060ff82169050919050565b611e0881611df2565b82525050565b6000602082019050611e236000830184611dff565b92915050565b6000819050919050565b611e3c81611e29565b82525050565b6000602082019050611e576000830184611e33565b92915050565b600060208284031215611e7357611e72611c61565b5b6000611e8184828501611cea565b91505092915050565b6000611e9582611c8b565b9050919050565b611ea581611e8a565b8114611eb057600080fd5b50565b600081359050611ec281611e9c565b92915050565b600080fd5b600080fd5b600080fd5b60008083601f840112611eed57611eec611ec8565b5b8235905067ffffffffffffffff811115611f0a57611f09611ecd565b5b602083019150836001820283011115611f2657611f25611ed2565b5b9250929050565b600080600080600060808688031215611f4957611f48611c61565b5b6000611f5788828901611eb3565b9550506020611f6888828901611cb4565b9450506040611f7988828901611cea565b935050606086013567ffffffffffffffff811115611f9a57611f99611c66565b5b611fa688828901611ed7565b92509250509295509295909350565b600060208284031215611fcb57611fca611c61565b5b6000611fd984828501611cb4565b91505092915050565b60007fff0000000000000000000000000000000000000000000000000000000000000082169050919050565b61201781611fe2565b82525050565b61202681611c8b565b82525050565b600081519050919050565b600082825260208201905092915050565b6000819050602082019050919050565b61206181611cc9565b82525050565b60006120738383612058565b60208301905092915050565b6000602082019050919050565b60006120978261202c565b6120a18185612037565b93506120ac83612048565b8060005b838110156120dd5781516120c48882612067565b97506120cf8361207f565b9250506001810190506120b0565b5085935050505092915050565b600060e0820190506120ff600083018a61200e565b81810360208301526121118189611c06565b905081810360408301526121258188611c06565b90506121346060830187611d75565b612141608083018661201d565b61214e60a0830185611e33565b81810360c0830152612160818461208c565b905098975050505050505050565b6000602082019050612183600083018461201d565b92915050565b61219281611df2565b811461219d57600080fd5b50565b6000813590506121af81612189565b92915050565b6121be81611e29565b81146121c957600080fd5b50565b6000813590506121db816121b5565b92915050565b600080600080600080600060e0888a031215612200576121ff611c61565b5b600061220e8a828b01611cb4565b975050602061221f8a828b01611cb4565b96505060406122308a828b01611cea565b95505060606122418a828b01611cea565b94505060806122528a828b016121a0565b93505060a06122638a828b016121cc565b92505060c06122748a828b016121cc565b91505092959891949750929550565b6000806040838503121561229a57612299611c61565b5b60006122a885828601611cb4565b92505060206122b985828601611cb4565b9150509250929050565b7f4e487b7100000000000000000000000000000000000000000000000000000000600052602260045260246000fd5b6000600282049050600182168061230a57607f821691505b60208210810361231d5761231c6122c3565b5b50919050565b600082825260208201905092915050565b82818337600083830152505050565b600061234f8385612323565b935061235c838584612334565b61236583611bf5565b840190509392505050565b600060a082019050612385600083018961201d565b612392602083018861201d565b61239f6040830187611d75565b6123ac6060830186611d75565b81810360808301526123bf818486612343565b9050979650505050505050565b6000815190506123db816121b5565b92915050565b6000602082840312156123f7576123f6611c61565b5b6000612405848285016123cc565b91505092915050565b7f4e487b7100000000000000000000000000000000000000000000000000000000600052601160045260246000fd5b600061244882611cc9565b915061245383611cc9565b925082820190508082111561246b5761246a61240e565b5b92915050565b600061247c82611cc9565b915061248783611cc9565b925082820390508181111561249f5761249e61240e565b5b92915050565b7f4e487b7100000000000000000000000000000000000000000000000000000000600052604160045260246000fd5b600060c0820190506124e96000830189611e33565b6124f6602083018861201d565b612503604083018761201d565b6125106060830186611d75565b61251d6080830185611d75565b61252a60a0830184611d75565b979650505050505050565b600060408201905061254a600083018561201d565b612557602083018461201d565b9392505050565b6000606082019050612573600083018661201d565b6125806020830185611d75565b61258d6040830184611d75565b949350505050565b600060a0820190506125aa6000830188611e33565b6125b76020830187611e33565b6125c46040830186611e33565b6125d16060830185611d75565b6125de608083018461201d565b9695505050505050565b60006080820190506125fd6000830187611e33565b61260a6020830186611dff565b6126176040830185611e33565b6126246060830184611e33565b95945050505050565b7f4e487b7100000000000000000000000000000000000000000000000000000000600052602160045260246000fdfea264697066735822122096592c7641861206fdcbdadbd3e9451be8b1d43bc5d5e0edd165971bee239aa064736f6c63430008180033",
  "linkReferences": {},
  "deployedLinkReferences": {}
}